{
  "contractName": "Auth",
  "abi": [
    {
      "inputs": [
        {
          "internalType": "string",
          "name": "username",
          "type": "string"
        },
        {
          "internalType": "string",
          "name": "password",
          "type": "string"
        }
      ],
      "name": "signup",
      "outputs": [],
      "stateMutability": "nonpayable",
      "type": "function"
    },
    {
      "inputs": [
        {
          "internalType": "string",
          "name": "username",
          "type": "string"
        },
        {
          "internalType": "string",
          "name": "password",
          "type": "string"
        }
      ],
      "name": "login",
      "outputs": [
        {
          "internalType": "bool",
          "name": "",
          "type": "bool"
        }
      ],
      "stateMutability": "view",
      "type": "function"
    }
  ],
  "bytecode": "0x608060405234801561000f575f80fd5b50610a578061001d5f395ff3fe608060405234801561000f575f80fd5b5060043610610034575f3560e01c806347e70e641461003857806358467dbc14610054575b5f80fd5b610052600480360381019061004d91906104dc565b610084565b005b61006e600480360381019061006991906104dc565b6101a3565b60405161007b919061056c565b60405180910390f35b5f801b5f803373ffffffffffffffffffffffffffffffffffffffff1673ffffffffffffffffffffffffffffffffffffffff1681526020019081526020015f206001015414610107576040517f08c379a00000000000000000000000000000000000000000000000000000000081526004016100fe906105df565b60405180910390fd5b6040518060400160405280838152602001826040516020016101299190610669565b604051602081830303815290604052805190602001208152505f803373ffffffffffffffffffffffffffffffffffffffff1673ffffffffffffffffffffffffffffffffffffffff1681526020019081526020015f205f820151815f0190816101919190610882565b50602082015181600101559050505050565b5f805f803373ffffffffffffffffffffffffffffffffffffffff1673ffffffffffffffffffffffffffffffffffffffff1681526020019081526020015f206040518060400160405290815f820180546101fb906106ac565b80601f0160208091040260200160405190810160405280929190818152602001828054610227906106ac565b80156102725780601f1061024957610100808354040283529160200191610272565b820191905f5260205f20905b81548152906001019060200180831161025557829003601f168201915b505050505081526020016001820154815250509050836040516020016102989190610669565b60405160208183030381529060405280519060200120815f01516040516020016102c29190610669565b6040516020818303038152906040528051906020012014610318576040517f08c379a000000000000000000000000000000000000000000000000000000000815260040161030f9061099b565b60405180910390fd5b826040516020016103299190610669565b60405160208183030381529060405280519060200120816020015114610384576040517f08c379a000000000000000000000000000000000000000000000000000000000815260040161037b90610a03565b60405180910390fd5b600191505092915050565b5f604051905090565b5f80fd5b5f80fd5b5f80fd5b5f80fd5b5f601f19601f8301169050919050565b7f4e487b71000000000000000000000000000000000000000000000000000000005f52604160045260245ffd5b6103ee826103a8565b810181811067ffffffffffffffff8211171561040d5761040c6103b8565b5b80604052505050565b5f61041f61038f565b905061042b82826103e5565b919050565b5f67ffffffffffffffff82111561044a576104496103b8565b5b610453826103a8565b9050602081019050919050565b828183375f83830152505050565b5f61048061047b84610430565b610416565b90508281526020810184848401111561049c5761049b6103a4565b5b6104a7848285610460565b509392505050565b5f82601f8301126104c3576104c26103a0565b5b81356104d384826020860161046e565b91505092915050565b5f80604083850312156104f2576104f1610398565b5b5f83013567ffffffffffffffff81111561050f5761050e61039c565b5b61051b858286016104af565b925050602083013567ffffffffffffffff81111561053c5761053b61039c565b5b610548858286016104af565b9150509250929050565b5f8115159050919050565b61056681610552565b82525050565b5f60208201905061057f5f83018461055d565b92915050565b5f82825260208201905092915050565b7f5573657220616c7265616479206578697374732e0000000000000000000000005f82015250565b5f6105c9601483610585565b91506105d482610595565b602082019050919050565b5f6020820190508181035f8301526105f6816105bd565b9050919050565b5f81519050919050565b5f81905092915050565b5f5b8381101561062e578082015181840152602081019050610613565b5f8484015250505050565b5f610643826105fd565b61064d8185610607565b935061065d818560208601610611565b80840191505092915050565b5f6106748284610639565b915081905092915050565b7f4e487b71000000000000000000000000000000000000000000000000000000005f52602260045260245ffd5b5f60028204905060018216806106c357607f821691505b6020821081036106d6576106d561067f565b5b50919050565b5f819050815f5260205f209050919050565b5f6020601f8301049050919050565b5f82821b905092915050565b5f600883026107387fffffffffffffffffffffffffffffffffffffffffffffffffffffffffffffffff826106fd565b61074286836106fd565b95508019841693508086168417925050509392505050565b5f819050919050565b5f819050919050565b5f61078661078161077c8461075a565b610763565b61075a565b9050919050565b5f819050919050565b61079f8361076c565b6107b36107ab8261078d565b848454610709565b825550505050565b5f90565b6107c76107bb565b6107d2818484610796565b505050565b5b818110156107f5576107ea5f826107bf565b6001810190506107d8565b5050565b601f82111561083a5761080b816106dc565b610814846106ee565b81016020851015610823578190505b61083761082f856106ee565b8301826107d7565b50505b505050565b5f82821c905092915050565b5f61085a5f198460080261083f565b1980831691505092915050565b5f610872838361084b565b9150826002028217905092915050565b61088b826105fd565b67ffffffffffffffff8111156108a4576108a36103b8565b5b6108ae82546106ac565b6108b98282856107f9565b5f60209050601f8311600181146108ea575f84156108d8578287015190505b6108e28582610867565b865550610949565b601f1984166108f8866106dc565b5f5b8281101561091f578489015182556001820191506020850194506020810190506108fa565b8683101561093c5784890151610938601f89168261084b565b8355505b6001600288020188555050505b505050505050565b7f496e76616c696420757365726e616d652e0000000000000000000000000000005f82015250565b5f610985601183610585565b915061099082610951565b602082019050919050565b5f6020820190508181035f8301526109b281610979565b9050919050565b7f496e76616c69642070617373776f72642e0000000000000000000000000000005f82015250565b5f6109ed601183610585565b91506109f8826109b9565b602082019050919050565b5f6020820190508181035f830152610a1a816109e1565b905091905056fea2646970667358221220ed3d449754af12258eed6b6b388429563028c8e5372232ba35cfee41fdd5dedc64736f6c63430008150033",
  "immutableReferences": {},
  "source": "// contracts/Auth.sol\r\npragma solidity ^0.8.0;\r\n\r\ncontract Auth {\r\n    struct User {\r\n        string username;\r\n        bytes32 passwordHash;\r\n    }\r\n\r\n    mapping(address => User) private users;\r\n\r\n    function signup(string memory username, string memory password) public {\r\n        require(users[msg.sender].passwordHash == 0, \"User already exists.\");\r\n        users[msg.sender] = User(username, keccak256(abi.encodePacked(password)));\r\n    }\r\n\r\n    function login(string memory username, string memory password) public view returns (bool) {\r\n        User memory user = users[msg.sender];\r\n        require(keccak256(abi.encodePacked(user.username)) == keccak256(abi.encodePacked(username)), \"Invalid username.\");\r\n        require(user.passwordHash == keccak256(abi.encodePacked(password)), \"Invalid password.\");\r\n        return true;\r\n    }\r\n}\r\n",
  "sourcePath": "C:\\Users\\12676\\Documents\\GitHub\\New folder (2)\\blockchain-login\\blockchain-auth\\blockchain-auth\\contracts\\Auth.sol",
  "compiler": {
    "name": "solc",
    "version": "0.8.21+commit.d9974bed.Emscripten.clang"
  },
  "schemaVersion": "3.4.16",
  "updatedAt": "2024-06-28T21:46:12.406Z",
  "devdoc": {
    "kind": "dev",
    "methods": {},
    "version": 1
  },
  "userdoc": {
    "kind": "user",
    "methods": {},
    "version": 1
  }
}