{
  "contractName": "Identity",
  "abi": [
    {
      "inputs": [
        {
          "internalType": "string",
          "name": "_name",
          "type": "string"
        },
        {
          "internalType": "string",
          "name": "_email",
          "type": "string"
        }
      ],
      "name": "createUser",
      "outputs": [],
      "stateMutability": "nonpayable",
      "type": "function"
    },
    {
      "inputs": [
        {
          "internalType": "address",
          "name": "_user",
          "type": "address"
        }
      ],
      "name": "getUser",
      "outputs": [
        {
          "internalType": "string",
          "name": "",
          "type": "string"
        },
        {
          "internalType": "string",
          "name": "",
          "type": "string"
        }
      ],
      "stateMutability": "view",
      "type": "function",
      "constant": true
    }
  ],
  "bytecode": "0x608060405234801561001057600080fd5b506108cc806100206000396000f3fe608060405234801561001057600080fd5b50600436106100365760003560e01c80636f77926b1461003b57806387b162b51461006c575b600080fd5b61005560048036038101906100509190610528565b610088565b604051610063929190610676565b60405180910390f35b61008660048036038101906100819190610551565b6102bc565b005b6060806000808473ffffffffffffffffffffffffffffffffffffffff1673ffffffffffffffffffffffffffffffffffffffff16815260200190815260200160002060020160009054906101000a900460ff16610119576040517f08c379a0000000000000000000000000000000000000000000000000000000008152600401610110906106cd565b60405180910390fd5b6000808473ffffffffffffffffffffffffffffffffffffffff1673ffffffffffffffffffffffffffffffffffffffff1681526020019081526020016000206000016000808573ffffffffffffffffffffffffffffffffffffffff1673ffffffffffffffffffffffffffffffffffffffff1681526020019081526020016000206001018180546101a7906107de565b80601f01602080910402602001604051908101604052809291908181526020018280546101d3906107de565b80156102205780601f106101f557610100808354040283529160200191610220565b820191906000526020600020905b81548152906001019060200180831161020357829003601f168201915b50505050509150808054610233906107de565b80601f016020809104026020016040519081016040528092919081815260200182805461025f906107de565b80156102ac5780601f10610281576101008083540402835291602001916102ac565b820191906000526020600020905b81548152906001019060200180831161028f57829003601f168201915b5050505050905091509150915091565b6000803373ffffffffffffffffffffffffffffffffffffffff1673ffffffffffffffffffffffffffffffffffffffff16815260200190815260200160002060020160009054906101000a900460ff161561034b576040517f08c379a0000000000000000000000000000000000000000000000000000000008152600401610342906106ad565b60405180910390fd5b6040518060600160405280838152602001828152602001600115158152506000803373ffffffffffffffffffffffffffffffffffffffff1673ffffffffffffffffffffffffffffffffffffffff16815260200190815260200160002060008201518160000190805190602001906103c3929190610408565b5060208201518160010190805190602001906103e0929190610408565b5060408201518160020160006101000a81548160ff0219169083151502179055509050505050565b828054610414906107de565b90600052602060002090601f016020900481019282610436576000855561047d565b82601f1061044f57805160ff191683800117855561047d565b8280016001018555821561047d579182015b8281111561047c578251825591602001919060010190610461565b5b50905061048a919061048e565b5090565b5b808211156104a757600081600090555060010161048f565b5090565b60006104be6104b98461071e565b6106ed565b9050828152602081018484840111156104d657600080fd5b6104e184828561079c565b509392505050565b6000813590506104f88161087f565b92915050565b600082601f83011261050f57600080fd5b813561051f8482602086016104ab565b91505092915050565b60006020828403121561053a57600080fd5b6000610548848285016104e9565b91505092915050565b6000806040838503121561056457600080fd5b600083013567ffffffffffffffff81111561057e57600080fd5b61058a858286016104fe565b925050602083013567ffffffffffffffff8111156105a757600080fd5b6105b3858286016104fe565b9150509250929050565b60006105c88261074e565b6105d28185610759565b93506105e28185602086016107ab565b6105eb8161086e565b840191505092915050565b6000610603601383610759565b91507f5573657220616c726561647920657869737473000000000000000000000000006000830152602082019050919050565b6000610643601383610759565b91507f5573657220646f6573206e6f74206578697374000000000000000000000000006000830152602082019050919050565b6000604082019050818103600083015261069081856105bd565b905081810360208301526106a481846105bd565b90509392505050565b600060208201905081810360008301526106c6816105f6565b9050919050565b600060208201905081810360008301526106e681610636565b9050919050565b6000604051905081810181811067ffffffffffffffff821117156107145761071361083f565b5b8060405250919050565b600067ffffffffffffffff8211156107395761073861083f565b5b601f19601f8301169050602081019050919050565b600081519050919050565b600082825260208201905092915050565b60006107758261077c565b9050919050565b600073ffffffffffffffffffffffffffffffffffffffff82169050919050565b82818337600083830152505050565b60005b838110156107c95780820151818401526020810190506107ae565b838111156107d8576000848401525b50505050565b600060028204905060018216806107f657607f821691505b6020821081141561080a57610809610810565b5b50919050565b7f4e487b7100000000000000000000000000000000000000000000000000000000600052602260045260246000fd5b7f4e487b7100000000000000000000000000000000000000000000000000000000600052604160045260246000fd5b6000601f19601f8301169050919050565b6108888161076a565b811461089357600080fd5b5056fea2646970667358221220bc74f4c5e5b3fd5bb996a24de4e46da79c4975c36e626e159675fec5d3a69db964736f6c63430008000033",
  "immutableReferences": {},
  "source": "// SPDX-License-Identifier: MIT\r\npragma solidity ^0.8.0;\r\n\r\ncontract Identity {\r\n    struct User {\r\n        string name;\r\n        string email;\r\n        bool exists;\r\n    }\r\n\r\n    mapping(address => User) private users;\r\n\r\n    function createUser(string memory _name, string memory _email) public {\r\n        require(!users[msg.sender].exists, \"User already exists\");\r\n        users[msg.sender] = User(_name, _email, true);\r\n    }\r\n\r\n    function getUser(address _user) public view returns (string memory, string memory) {\r\n        require(users[_user].exists, \"User does not exist\");\r\n        return (users[_user].name, users[_user].email);\r\n    }\r\n}\r\n",
  "sourcePath": "C:\\Users\\12676\\Documents\\GitHub\\New folder (2)\\blockchain-identity\\contracts\\identity.sol",
  "compiler": {
    "name": "solc",
    "version": "0.8.0+commit.c7dfd78e.Emscripten.clang"
  },
  "schemaVersion": "3.4.16",
  "updatedAt": "2024-07-03T23:07:29.380Z",
  "networkType": "ethereum",
  "devdoc": {
    "kind": "dev",
    "methods": {},
    "version": 1
  },
  "userdoc": {
    "kind": "user",
    "methods": {},
    "version": 1
  }
}