{
  "contractName": "UserAuth",
  "abi": [
    {
      "inputs": [],
      "stateMutability": "nonpayable",
      "type": "constructor"
    },
    {
      "inputs": [
        {
          "internalType": "string",
          "name": "username",
          "type": "string"
        },
        {
          "internalType": "string",
          "name": "password",
          "type": "string"
        }
      ],
      "name": "signup",
      "outputs": [],
      "stateMutability": "nonpayable",
      "type": "function"
    },
    {
      "inputs": [
        {
          "internalType": "string",
          "name": "username",
          "type": "string"
        },
        {
          "internalType": "string",
          "name": "password",
          "type": "string"
        }
      ],
      "name": "login",
      "outputs": [
        {
          "internalType": "bool",
          "name": "",
          "type": "bool"
        }
      ],
      "stateMutability": "view",
      "type": "function",
      "constant": true
    }
  ],
  "bytecode": "0x608060405234801561001057600080fd5b50600073ffffffffffffffffffffffffffffffffffffffff163373ffffffffffffffffffffffffffffffffffffffff1603610080576040517f08c379a0000000000000000000000000000000000000000000000000000000008152600401610077906100e2565b60405180910390fd5b610102565b600082825260208201905092915050565b7f496e76616c69642073656e646572206164647265737300000000000000000000600082015250565b60006100cc601683610085565b91506100d782610096565b602082019050919050565b600060208201905081810360008301526100fb816100bf565b9050919050565b610abd806101116000396000f3fe608060405234801561001057600080fd5b50600436106100365760003560e01c806347e70e641461003b57806358467dbc14610057575b600080fd5b61005560048036038101906100509190610514565b610087565b005b610071600480360381019061006c9190610514565b61023f565b60405161007e91906105a7565b60405180910390f35b60008251116100cb576040517f08c379a00000000000000000000000000000000000000000000000000000000081526004016100c29061061f565b60405180910390fd5b600081511161010f576040517f08c379a00000000000000000000000000000000000000000000000000000000081526004016101069061068b565b60405180910390fd5b60008060003373ffffffffffffffffffffffffffffffffffffffff1673ffffffffffffffffffffffffffffffffffffffff168152602001908152602001600020600001805461015d906106da565b90501461019f576040517f08c379a000000000000000000000000000000000000000000000000000000000815260040161019690610757565b60405180910390fd5b6040518060400160405280838152602001826040516020016101c191906107e8565b604051602081830303815290604052805190602001208152506000803373ffffffffffffffffffffffffffffffffffffffff1673ffffffffffffffffffffffffffffffffffffffff168152602001908152602001600020600082015181600001908161022d91906109b5565b50602082015181600101559050505050565b6000806000803373ffffffffffffffffffffffffffffffffffffffff1673ffffffffffffffffffffffffffffffffffffffff16815260200190815260200160002060405180604001604052908160008201805461029b906106da565b80601f01602080910402602001604051908101604052809291908181526020018280546102c7906106da565b80156103145780601f106102e957610100808354040283529160200191610314565b820191906000526020600020905b8154815290600101906020018083116102f757829003601f168201915b50505050508152602001600182015481525050905080602001518360405160200161033f91906107e8565b604051602081830303815290604052805190602001201480156103b15750806000015160405160200161037291906107e8565b604051602081830303815290604052805190602001208460405160200161039991906107e8565b60405160208183030381529060405280519060200120145b91505092915050565b6000604051905090565b600080fd5b600080fd5b600080fd5b600080fd5b6000601f19601f8301169050919050565b7f4e487b7100000000000000000000000000000000000000000000000000000000600052604160045260246000fd5b610421826103d8565b810181811067ffffffffffffffff821117156104405761043f6103e9565b5b80604052505050565b60006104536103ba565b905061045f8282610418565b919050565b600067ffffffffffffffff82111561047f5761047e6103e9565b5b610488826103d8565b9050602081019050919050565b82818337600083830152505050565b60006104b76104b284610464565b610449565b9050828152602081018484840111156104d3576104d26103d3565b5b6104de848285610495565b509392505050565b600082601f8301126104fb576104fa6103ce565b5b813561050b8482602086016104a4565b91505092915050565b6000806040838503121561052b5761052a6103c4565b5b600083013567ffffffffffffffff811115610549576105486103c9565b5b610555858286016104e6565b925050602083013567ffffffffffffffff811115610576576105756103c9565b5b610582858286016104e6565b9150509250929050565b60008115159050919050565b6105a18161058c565b82525050565b60006020820190506105bc6000830184610598565b92915050565b600082825260208201905092915050565b7f557365726e616d652063616e6e6f7420626520656d7074790000000000000000600082015250565b60006106096018836105c2565b9150610614826105d3565b602082019050919050565b60006020820190508181036000830152610638816105fc565b9050919050565b7f50617373776f72642063616e6e6f7420626520656d7074790000000000000000600082015250565b60006106756018836105c2565b91506106808261063f565b602082019050919050565b600060208201905081810360008301526106a481610668565b9050919050565b7f4e487b7100000000000000000000000000000000000000000000000000000000600052602260045260246000fd5b600060028204905060018216806106f257607f821691505b602082108103610705576107046106ab565b5b50919050565b7f5573657220616c72656164792065786973747300000000000000000000000000600082015250565b60006107416013836105c2565b915061074c8261070b565b602082019050919050565b6000602082019050818103600083015261077081610734565b9050919050565b600081519050919050565b600081905092915050565b60005b838110156107ab578082015181840152602081019050610790565b60008484015250505050565b60006107c282610777565b6107cc8185610782565b93506107dc81856020860161078d565b80840191505092915050565b60006107f482846107b7565b915081905092915050565b60008190508160005260206000209050919050565b60006020601f8301049050919050565b600082821b905092915050565b6000600883026108617fffffffffffffffffffffffffffffffffffffffffffffffffffffffffffffffff82610824565b61086b8683610824565b95508019841693508086168417925050509392505050565b6000819050919050565b6000819050919050565b60006108b26108ad6108a884610883565b61088d565b610883565b9050919050565b6000819050919050565b6108cc83610897565b6108e06108d8826108b9565b848454610831565b825550505050565b600090565b6108f56108e8565b6109008184846108c3565b505050565b5b81811015610924576109196000826108ed565b600181019050610906565b5050565b601f8211156109695761093a816107ff565b61094384610814565b81016020851015610952578190505b61096661095e85610814565b830182610905565b50505b505050565b600082821c905092915050565b600061098c6000198460080261096e565b1980831691505092915050565b60006109a5838361097b565b9150826002028217905092915050565b6109be82610777565b67ffffffffffffffff8111156109d7576109d66103e9565b5b6109e182546106da565b6109ec828285610928565b600060209050601f831160018114610a1f5760008415610a0d578287015190505b610a178582610999565b865550610a7f565b601f198416610a2d866107ff565b60005b82811015610a5557848901518255600182019150602085019450602081019050610a30565b86831015610a725784890151610a6e601f89168261097b565b8355505b6001600288020188555050505b50505050505056fea2646970667358221220113c7da9beabc412e4fa3edfee937e322ec5fc511456423c226fe1acedec63ac64736f6c63430008110033",
  "immutableReferences": {},
  "source": "// SPDX-License-Identifier: MIT\r\npragma solidity >=0.4.22 <0.9.0;\r\n\r\ncontract UserAuth {\r\n    struct User {\r\n        string username;\r\n        bytes32 passwordHash;\r\n    }\r\n\r\n    mapping(address => User) private users;\r\n\r\n    constructor() {\r\n        // Example require statement in constructor\r\n        require(msg.sender != address(0), \"Invalid sender address\");\r\n        // Initialize other contract variables\r\n    }\r\n\r\n    function signup(string memory username, string memory password) public {\r\n        require(bytes(username).length > 0, \"Username cannot be empty\");\r\n        require(bytes(password).length > 0, \"Password cannot be empty\");\r\n        require(bytes(users[msg.sender].username).length == 0, \"User already exists\");\r\n\r\n        users[msg.sender] = User(username, keccak256(abi.encodePacked(password)));\r\n    }\r\n\r\n    function login(string memory username, string memory password) public view returns (bool) {\r\n        User memory user = users[msg.sender];\r\n        return (keccak256(abi.encodePacked(password)) == user.passwordHash) && (keccak256(abi.encodePacked(username)) == keccak256(abi.encodePacked(user.username)));\r\n    }\r\n}\r\n",
  "sourcePath": "C:\\Users\\12676\\Documents\\GitHub\\New folder (2)\\blockchain-login\\contracts\\UserAuth.sol",
  "compiler": {
    "name": "solc",
    "version": "0.8.17+commit.8df45f5f.Emscripten.clang"
  },
  "schemaVersion": "3.4.16",
  "updatedAt": "2024-06-29T22:27:20.948Z",
  "networkType": "ethereum",
  "devdoc": {
    "kind": "dev",
    "methods": {},
    "version": 1
  },
  "userdoc": {
    "kind": "user",
    "methods": {},
    "version": 1
  }
}